:06088100C2A47FF47E0119
:10088700E4FDFCC3ED9FEC9E5015E4FBFA0BBB00A7
:0F089700010AEB647B4A70F50DBD00010C80E493
:0108A600222F
:10082E0020B21D120881D2A4C2A5120887D2A5C279
:10083E00A6120887D2A6C2A7120887D2A730B2E3A3
:0A084E0030B206D2A4D2A5D2A62231
:1008000020B32A120881C2A5120887C2A61208873F
:10081000C2A7120887D2A7120887D2A6120887D2C9
:0E082000A5120887D2A412088730B3D722226F
:1008A70020B420C2A7120883D2A7C2A6120887D2F3
:1008B700A6C2A5120887D2A5C2A4120887D2A4305F
:0408C700B4E1222254
:1008580020B20A7F327E0012088712082E20B30ABF
:100868007F327E0012088712080020B4E37F327EB0
:09087800001208871208A780D7BE
:030000000208CB28
:0C08CB00787FE4F6D8FD7581070208581C
:00000001FF
